:020000040800F2
:10000000A81200204902000851020008530200080B
:1000100055020008570200085902000800000000BD
:100020000000000000000000000000005B0200086B
:100030005D020008000000005F0200086102000885
:1000400063020008630200086302000863020008FC
:10005000630200086302000863020008E534000838
:100060001D350008630200086302000863020008EF
:10007000A52B000863020008630200086302000861
:1000800063020008630200086302000863020008BC
:1000900063020008630200086302000863020008AC
:1000A000630200086302000863020008630200089C
:1000B00071520008D552000863020008630200086C
:1000C000630200086302000863020008630200087C
:1000D000630200086302000863020008630200086C
:1000E0002D34000863020008630200086302000860
:1000F000630200086302000863020008630200084C
:10010000630200086302000863020008630200083B
:10011000630200086302000863020008630200082B
:100120006302000863020008012C00086302000853
:10013000630200086302000863020008630200080B
:1001400063020008630200086302000863020008FB
:1001500063020008630200086302000863020008EB
:1001600063020008630200086302000863020008DB
:1001700063020008630200086302000863020008CB
:10018000630200086302000800F002F800F04DF876
:100190000AA090E8000C82448344AAF10107DA45E2
:1001A00001D100F042F8AFF2090EBAE80F0013F0E7
:1001B000010F18BFFB1A43F001031847D088000055
:1001C000F0880000103A24BF78C878C1FAD85207E6
:1001D00024BF30C830C144BF04680C6070470000C1
:1001E0000023002400250026103A28BF78C1FBD840
:1001F000520728BF30C148BF0B607047662908F01E
:100200003E83002070471FB508F02FFB9DE80300D8
:1002100000F05AFA00F0F0FC04000020002107F082
:1002200045FDE0601FBD10B510BD00F007FE114692
:10023000FFF7E9FF06F050FD00F025FE03B4FFF7DD
:10024000F2FF03BC00F096FE0948804709480047CA
:10025000FEE7FEE7FEE7FEE7FEE7FEE7FEE7FEE776
:10026000FEE7FEE704480549054A064B70470000D3
:100270000952000889010008A80C0020A8120020DB
:10028000A80E0020A80E002070B5064600F000FA67
:10029000056806F10B0020F00704B4429CBF002063
:1002A00070BD2B466A68BAB11068A04210D304F141
:1002B000080188423CBF5068586007D35168101944
:1002C00041601168091B016058601460101D70BD09
:1002D00013465268002AE7D12146284600F0E0F98B
:1002E0000028DED170BD70B50446051F00F0D0F9BE
:1002F0000068002C14BF446870BD002C18BFAC42CD
:100300003CBF20466468F8D301680A18AA4218BFA7
:10031000456003D12A6805461144016028684119E7
:10032000A1421CBF6C6070BD6168696021680844AF
:10033000286070BD0FB41CB5074B06AA7B44694604
:100340000090059800F015FC0020694600F024FCA0
:100350001CBC5DF814FB00005908000070B5044691
:1003600085690068C10601D5302600E02026C00757
:1003700007D070BDD4E9012130469047206A401C67
:1003800020626D1EF6D570BD70B504468569007893
:10039000C00707D170BDD4E9012120209047206A11
:1003A000401C20626D1EF6D570BD2DE9F0474FF060
:1003B000000A89460446C0F820A02046E168884724
:1003C000002876D0252806D0D4E901219047206A5C
:1003D000401C2062F1E7E168204600258847C4F808
:1003E0001CA006460027C4F818A02A2E09D03046C3
:1003F00006F0EEF838B304EB8708303EC8F8186012
:1004000019E059F8041B204604EB87029161E1686A
:100410008847012F064618D1E069002820DA25F028
:1004200020051DE0D8F8180000EB800006EB400026
:100430003038C8F818002046E1688847064606F0BC
:10044000C7F80028EED1012F0AD02E2E08D1204661
:10045000E16888477F1C0646022F45F02005C4DB73
:10046000A069002803DA404245F00105A061E807D1
:1004700001D025F01005B6B1A6F14100192802D827
:10048000203645F400654A463146204625604D46F3
:10049000FFF7B4FE58B1012806D0ED1D25F0070086
:1004A00000F1080989E704E005F1040985E7304611
:1004B0008AE7206ABDE8F08740EA0103024630B5CA
:1004C0009B0710D14FF0013400E008C208C91D1B82
:1004D0009D4315EAC41FF8D013F0FF0102F8011B79
:1004E0000DD01B0AF8E711F8013B002B02F8013B85
:1004F00005D011F8013B002B02F8013BF3D130BDD0
:1005000010B5431C02E010F8011B71B18107FAD14C
:100510004FF0013202C88C1A8C4314EAC211F9D090
:10052000C01A0A0603D0C01E10BDC01A10BD0A04AE
:1005300001D0801E10BD0902FCD0401E10BD421E1D
:1005400012F8013F002BFBD111F8013B002B02F800
:10055000013BF9D17047032A40F2308010F0030CC0
:1005600000F0158011F8013BBCF1020F624498BF06
:1005700011F801CB00F8013B38BF11F8013BA2F1A3
:10058000040298BF00F801CB38BF00F8013B11F01E
:10059000030300F02580083AC0F0088051F8043BBE
:1005A000083A51F804CBA0E80810F5E7121D5CBF2B
:1005B00051F8043B40F8043BAFF30080D20724BF5E
:1005C00011F8013B11F801CB48BF11F8012B24BFF2
:1005D00000F8013B00F801CB48BF00F8012B704741
:1005E00010B5203AC0F00B80B1E81850203AA0E8CE
:1005F0001850B1E81850A0E81850BFF4F5AF5FEA02
:10060000027C24BFB1E81850A0E8185044BF18C9B4
:1006100018C0BDE810405FEA827C24BF51F8043B5B
:1006200040F8043B08BF7047D20728BF31F8023BAF
:1006300048BF11F8012B28BF20F8023B48BF00F843
:10064000012B70474FF000020429C0F0128010F017
:10065000030C00F0A882CCF1040CBCF1020F18BF0F
:1006600000F8012BA8BF20F8022BA1EB0C0100F031
:100670009ABA5FEAC17C24BF00F8012B00F8012B75
:1006800048BF00F8012B7047704770477047000063
:1006900000487047500C0020704770477047704703
:1006A00038B504460A4600206946AFF300800028AA
:1006B00008BF38BD02460099204600F0A5FA012087
:1006C00038BD012000F0B2BBF8B5AFF3008005469D
:1006D00000200C46102000BF0646A819A0420DD9E4
:1006E000324669460020AFF30080070008BF00F0E3
:1006F0009DFB0098A04218BF0546C419FFF7C8FF2C
:1007000005600746F01D20F007004619284600F056
:100710000AF8B44208BFF8BDA21B31463868BDE8EC
:10072000F84000F071BA00210160C0E90110704783
:100730001020704710B500F063FA006810BD10B5C6
:10074000044600F05DFA046010BD70472DE9FF4FCC
:100750000C461E464FF0FF378BB0D2E90001DDF8A2
:1007600060800A908A46C1F30A5505B93D460021CA
:1007700008464FF00000BAF1000F00F4400005DA1F
:1007800000EB80004FF4400101EA50004FEA90591D
:10079000B9F1010F00DDB9460A9850EA4A000ED0BF
:1007A00044F61050A5F2FF3545432F14B8F1000F61
:1007B0001ED07542291E1EDDC9F100021CE0B8F1F1
:1007C000010F4FF0000001D0302103E0F24305E0BB
:1007D0002154401CB042FBDB304600220021215452
:1007E0000B99C1F80880C1E900200FB0BDE8F08F77
:1007F000BD1B6D1CDEE74A4600DA694206A800F020
:10080000A3FA06AB93E8070003AB83E80700504662
:100810000A9900F0D5FB8DE80700A0F500501F38BD
:1008200000900398002D0ADD42F21F014A46084459
:10083000002303A90390684600F03EFE09E0A0F5FE
:1008400000504A461F38002303A90390684600F071
:1008500048FE8DE807000004000C03D04FF0FF3085
:10086000410800E01046B8F1000F03D000220092CA
:1008700015461EE0751E05D400F0E0F930326255D1
:100880006D1EF9D5B3460122084302D000227F1C19
:1008900004E02078302801D100227F1E002A099729
:1008A00084D01DE0112D07DA00F0C8F9303262550E
:1008B0006D1C50EA0102F5D1084302D00098C8B17E
:1008C0000EE00021681E05E0235C625C6354225444
:1008D000401E491C8142F7DBAB46A81B401E099015
:1008E000002004F80B000B98099AC0F80880C0E9B2
:1008F000002B7AE711264FF0000857E72DE9F04F5B
:1009000088460446D21D22F0070191B0D1E90001CA
:10091000CDE90A0105F026F902460B98C00F01D077
:100920002D2007E02068810701D52B2002E020213F
:1009300001EAC000032A099001D0072A05DB03461B
:100940004146204600F0C0F90BE12078800601D531
:10095000E06900E00620B8F1650F814606D0B8F1E5
:10096000660F18D0B8F1670F70D131E00020B9F1EF
:10097000110F009001DB112301E009F101030AAA24
:1009800001A90CA8FFF7E2FEDDE90C70002609F1D1
:100990000105834647E001204B4600904FF0004799
:1009A0000AAA01A90CA8FFF7D1FEDDE90DB00C9948
:1009B0005D46002610B909F101000D18B9EB0500DC
:1009C00003D4C0F1FF3609F10105A5EB09002BE0C6
:1009D000B9F1010F01DA4FF001090020B9F1110F4F
:1009E0000090484601DD112300E003460AAA01A950
:1009F0000CA8FFF7ABFEDDE90C704D4600268346E0
:100A0000207800070AD4AB4500DA5D4601A8012D25
:100A100004DD411911F8011C302907D04F4502DAD5
:100A200017F1040F04DA012082460FE06D1EEEE795
:100A3000002F02DCED1B3E4403E0781CA84200DDE1
:100A40007D1CB81B00F1010A4FF000472078000719
:100A500003D4AA4501DB4FF0FF3A0021B7F1004F64
:100A60000DF143088DF8431024D002202B23002FD2
:100A700001DA7F422D230A21021EA0F1010000DCD1
:100A80005FB197FBF1FC97FBF1F201FB1C7C174671
:100A90000CF1300C08F801CDEEE7A8F1010003706D
:100AA0002188090501D5452100E06521A0F1010853
:100AB00000F8011C09980FA9A1EB0807FF1D00B160
:100AC0000120411901EBEA70A1693844081A401E5F
:100AD000A0612078C00602D42046FFF73FFC0998A9
:100AE00028B1D4E901219047206A401C2062207877
:100AF000C00622D52046FFF731FC1EE0002E04DBA5
:100B0000B34502DD01A8805D00E03020D4E9012179
:100B10009047206A401C2062761CAAF101005FEA1F
:100B2000000A0AD100F068F8C0680168405CD4E9A6
:100B300001219047206A401C2062281EA5F1010572
:100B4000DCDC07E0D4E9012118F8010B9047206AAA
:100B5000401C2062381EA7F10107F3DC2046FFF796
:100B600013FC032011B041E601694A1C02610878B8
:100B7000704700B58FB0CDE90131002105910549DD
:100B80007944CDE9031011466846FFF70EFC0FB01B
:100B900000BD0000E5FFFFFF0A6802F8010B0A60D4
:100BA00070474FF0000200B5134694469646203930
:100BB00022BFA0E80C50A0E80C50B1F12001BFF416
:100BC000F7AF090728BFA0E80C5048BF0CC05DF87C
:100BD00004EB890028BF40F8042B08BF704748BFCA
:100BE00020F8022B11F0804F18BF00F8012B70473E
:100BF00000487047480C002000487047680C0020EF
:100C000000487047480C0020034640688C46002886
:100C100018BF88423CBF03464068F8D318681844A0
:100C2000884207D00CF1030020F00700001D411A94
:100C3000521A0146081D0A60FFF755BB30B5B0F1E6
:100C40000A024FEA900E71F100034EEA817EB0EB8A
:100C50000E0061EB91014FEA101E4EEA017E10EB8F
:100C60000E0041EB11114FEA102E4EEA016E10EB0F
:100C70000E0041EB11214FEA104E4EEA014E10EBEF
:100C80000E0041EB1141401841F100014FEAD00044
:100C900040EA41704FEAD10110EB80054FEA810430
:100CA00044EA907444EB01046D1944EB0404521BB4
:100CB000A3414FF0000348BF0A3200D530BD401CAD
:100CC00041F1000130BD00002DE9F0411F4604460E
:100CD00003260168072A01F4006004DB08B116A5A9
:100CE00005E016A503E008B115A500E015A521F063
:100CF00010002060A069C01EA0610FB1401EA0615D
:100D00002046FFF72BFB4FB1D4E90121384690472D
:100D1000206A401C2062C01C206206E0206AFAE7BC
:100D2000D4E9012115F8010B9047761EF8D2204630
:100D3000FFF72AFBBDE8F0814E414E006E616E0068
:100D4000494E4600696E66002DE9F0478146164619
:100D50008AB0354878440DC88DE80D003248784493
:100D6000801C03AC0DC884E80D0041F69B3008449C
:100D7000372190FBF1F290FBF1F5A5F1800501FB25
:100D800012041B3C02D56442012000E00020DFF881
:100D900098A080460027FA44AAF1BE0A0EE0E007B8
:100DA0000AD03246684607EB470101230AEB81016E
:100DB00000F097FB8DE8070064107F1C002CEED13B
:100DC000194F7F44AE3F19E0E80715D007EB041038
:100DD0000DF1180A90E80E008AE80E00C068F04293
:100DE00001D1981908903246012306A903A800F002
:100DF00078FB03AB83E807006D10641C002DE3D182
:100E00004FF0010332466946B8F1000F03A802D043
:100E100000F052FB01E000F064FBC9E90001C9F8F1
:100E200008200AB0BDE8F0871C7D000010B500F076
:100E300039F8BDE8104000F02FB870477546FFF74D
:100E4000D7FEAE4605006946534620F007008546AA
:100E500018B020B5FFF706FABDE820404FF00006B5
:100E60004FF000074FF000084FF0000B21F0070192
:100E7000AC46ACE8C009ACE8C009ACE8C009ACE8D5
:100E8000C0098D46704710B50446AFF30080204678
:100E9000BDE81040FFF7D2B9002801D000F06AB8D1
:100EA0007047000010B5012805D0002103A000F014
:100EB00067F8012010BD09A1F8E700005349475227
:100EC000544D454D3A204F7574206F66206865611A
:100ED00070206D656D6F7279000000003A204865E2
:100EE0006170206D656D6F727920636F72727570BD
:100EF000746564004FF0013C50F8042B51F8043B3A
:100F00009A4221D1A2EB0C03934313EACC1317D1DD
:100F100050F8042B51F8043B9A4215D1A2EB0C0374
:100F2000934313EACC130BD150F8042B51F8043B34
:100F30009A4209D1A2EB0C03934313EACC13DBD002
:100F40004FF00000704700BFD01A01BAB1FA81F12A
:100F500001F0180122FA01F0CB40C1F12001DBB20F
:100F6000C0B2C01A2CFA01F3D11A914311EAC3118D
:100F7000E6D1704701491820ABBEFEE7260002000B
:100F800070B505460C460A2000E06D1C00F011F813
:100F900035B128780028F8D102E0641C00F009F887
:100FA00014B120780028F8D1BDE870400A20AFF3D2
:100FB000008008B569468DF800000320ABBE08BD6F
:100FC0005FEA400C08BF91F0000F4FEA8C234FEA14
:100FD000C12243EA51514FEA1C5018BF00F5F040BE
:100FE0004FEA300018BF41F000415FEA6C5C00F04E
:100FF0002980BCF1FF3F08BF40F080407047130CD0
:1010000006BF12044FF0100C4FF0000C130E04BF7B
:1010100012020CF1080C130F04BF12010CF1040CA6
:10102000930F04BF92000CF1020CD30F04BF5200C7
:101030000CF1010C11464FF00002A0F11F00A0EBD3
:101040000C00704711F0004F08BF704731F00041AD
:101050003FF4D5AF0B0C06BF09044FF0100C4FF056
:10106000000C0B0E04BF09020CF1080C0B0F04BF9F
:1010700009010CF1040C8B0F04BF89000CF1020C68
:10108000CB0F04BF49000CF1010CCCF12003A0EB05
:101090000C0022FA03F302FA0CF241EA030100F118
:1010A0000100704720F07F4C80EA030023F07F4767
:1010B000ACEB070303F57C5300F0004003F1FF03A2
:1010C0002DE980494FEA154B09B44FEA144325EA4C
:1010D0000B4E24EA03480FF2042606EB13274908B7
:1010E0003E785FEA320203FB0667C7F5000707FB9D
:1010F00006F64FEA54374FEAD64606F1020607FBDA
:10110000066CCCF1005C4FEA1C472CEA074C07FB4D
:1011100006F40CFB06F504EB15464FEA961634BFB1
:1011200000204FF000404FEAD13706FB07FC4FEAA2
:101130001C4C0CFB0BF7D21B03FB0CF761EB0701FC
:101140000CFB0EF7B0EB074072EB17420CFB08F7F5
:1011500034BFA2EB0742B2EB074261EB17414FEA03
:101160000C444FEA910706FB07FC4FEA1C4C0CFBB2
:101170000BF7B0EBC74072EB573203FB0CF734BFF1
:10118000A2EBC742B2EBC74261EB57310CFB0EF743
:10119000B0EBC70072EB57720CFB08F734BFA2EB41
:1011A000C702B2EBC70261EB5771039F4FEA81613F
:1011B00041EA921104EBCC044FEAD1374FEA826244
:1011C00006FB07FC42EA90124FEA80604FEA1C4C93
:1011D0000CFB0BF7D21B03FB0CF761EB07010CFBBD
:1011E0000EF7B0EB074072EB17420CFB08F734BF69
:1011F000A2EB0742B2EB074261EB17414FEA8C5575
:101200004FEA910704EB9C2406FB07FC4FEA1C4CB9
:101210000CFB0BF7B0EBC74072EB573203FB0CF73C
:1012200034BFA2EBC742B2EBC74261EB57310CFBB4
:101230000EF7B0EBC70072EB57720CFB08F734BF28
:10124000A2EBC702B2EBC70261EB577115EB4C255D
:101250004FEA816141EA92114FEA82624FEAD13747
:1012600042EA901206FB07FC44F100044FEA80605A
:101270004FEA1C4C0CFB0BF7D21B03FB0CF761EB8A
:1012800007010CFB0EF7B0EB074072EB17420CFBAB
:1012900008F734BFA2EB0742B2EB074261EB1741FC
:1012A00015EB1C154FEA813141EA92414FEA823237
:1012B00042EA90424FEA80304FEA0C7644F1000453
:1012C00048EA03434EEA0B484FF0000EB2EB080C1D
:1012D00071EB030724BF624639464EEB0E0E4FF00A
:1012E000000B0018524149414BEB0B0BB2EB080CC1
:1012F00071EB03077BF1000B24BF624639464EEBCE
:101300000E0E4FF0000B0018524149414BEB0B0BF6
:10131000B2EB080C71EB03077BF1000B24BF6246B4
:1013200039464EEB0E0E51EA020718BF46F0010691
:1013300016EB0E7655F1000254F1000103D5BDE81D
:101340008901BDE80088BDE88901BDE80048B619FB
:10135000524141EB0101A3F10103704780807F7E80
:101360007D7C7B7A7978777676757473727171701B
:101370006F6E6E6D6C6C6B6A6A69686867666665CD
:101380006464636362616160605F5F5E5E5D5D5C5B
:101390005C5B5B5A5A5959585857575656555555CC
:1013A0005454535352525251515050504F4F4F4E2C
:1013B0004E4D4D4D4C4C4C4B4B4B4A4A4A4949497A
:1013C00048484847474747464646454545444444BC
:1013D000444343434342424242414141002B9C46E5
:1013E00030D477002BD01CB54FEA370703B44FF049
:1013F00010004FF01001BAF1000F06D0BCF1000F41
:10140000DCBF40F0080040F008014FF000000FBCC6
:10141000BDE810400BF1010BBBF1010F08BF5FEA03
:10142000170722BF12F1010211F101014FF0004133
:1014300043F1000300F0004043EA00007047F9D395
:101440005708D0E746EA064613F1400F4FEA164622
:101450001FDD13F1200FDFBF16430A4600212033A2
:101460005B42BED0C3F1200746EA064602FA07F700
:101470004FEA164646EA0706C3F1200722FA03F2AE
:1014800001FA07F721FA03F14FF0000342EA0702DD
:10149000A7E746EA020646EA06464FEA164646EA45
:1014A0000106BCBF46EA0646360C4FF000034FF07B
:1014B00000024FF0000194E72DE9804C9A469346D4
:1014C00070B491E8380007C831EA400C48BF34EAEC
:1014D000430C03D5FFF7E6FDFFF780FFF0BCBDE846
:1014E000008C2DE9804C9A46934670B491E8380000
:1014F00007C810F0804F08BF13F0804F03D100F0F1
:1015000005F8FFF76BFFF0BCBDE8008C20F07F47CB
:1015100080EA030023F07F4C07EB0C03A3F57C5318
:1015200000F00040A3F1FE0392F0000F00F0B38042
:1015300095F0000F00F077802DE901494FEA114046
:101540004FEA144621EA004800FB06FC24EA06475D
:1015500008FB06F607FB08F800FB07F718EB064840
:101560004CEB164C4FEA124B18EB07484FEA154666
:101570004CEB174022EA0B4E0BFB06FC25EA064714
:101580000EFB06F607FB0EFE0BFB07F71EEB064EE7
:101590004CEB164C4FF000061EEB074E4CEB174B76
:1015A00018EB0B0840F1000018EB0E0B58EB00088D
:1015B00040F100008F1A4FF000013CBFC943661B89
:1015C00014BFB5EB040C00213CBFC943F61B4FEA26
:1015D00017444EEA8E0E27EA04454FEA1C4704FBE7
:1015E00007622CEA074C05FB07F70CFB05F604FB2A
:1015F0000CFC16EB074642EB174216EB0C4642EB8F
:101600001C421BEB060658EB0202414146EA9E06CD
:1016100001D5BDE80189B619524141EB0101A3F1A1
:101620000103BDE801894FEA14454FEA114724EA56
:10163000054621EA074C05FB07F406FB07F70CFB00
:1016400006F105FB0CFC11EB074144EB17444FEA94
:10165000124711EB0C4144EB1C4422EA074C05FBFA
:1016600007F206FB07F70CFB06F605FB0CFC16EB76
:10167000074642EB174216EB0C4642EB1C456A1834
:1016800054F1000148BF7047B619524141EB0101C6
:10169000A3F10103704795F0000F37D04FEA1142D4
:1016A0004FEA144721EA024624EA074C02FB07F1FD
:1016B00006FB07F70CFB06F402FB0CFC14EB0744DB
:1016C00041EB17414FEA154714EB0C4441EB1C4129
:1016D00025EA074C02FB07F506FB07F70CFB06F6AD
:1016E00002FB0CFC16EB074645EB174516EB0C46C8
:1016F00045EB1C42121951F1000148BF7047B61961
:10170000524141EB0101A3F1010370474FEA144537
:101710004FEA114724EA054621EA074C05FB07F189
:1017200006FB07F70CFB06F24FF0000605FB0CFC6E
:1017300012EB074241EB174112EB0C4251EB1C41FB
:1017400048BF7047921841EB0101A3F101037047B4
:1017500010B52DED028B82B0FC4880786B287DD0CF
:1017600008DC63280DD0642879D0652878D06828F3
:101770003ED19EE1722874D0732873D07428F7D1BB
:1017800037E0F248C078722820D1F148007830B1B3
:101790000020F04908700120EF49087028E0EF4868
:1017A0000078002824D0EEA004F030F9F3A004F073
:1017B0004DF90020E64908700120E8490870002032
:1017C000E54908700120E349087011E0DF48C0785E
:1017D00064280DD10020E1490870DD490870E9A0B6
:1017E00004F014F9EEA004F031F90020EE4908707D
:1017F00031E2D649087904F0F2FEDFEDEC0A20EE82
:10180000208AD249487904F0EAFEF2EE040A00EE9A
:10181000208ACE49887904F0E2FE38EE008ACB496E
:10182000087A04F0DCFEF2EE040A80EE201A38EEAC
:10183000018AC649487A04F0D2FEDFEDDC0A80EE68
:10184000201A38EE018AC149887A04F0C8FEDFED1B
:10185000D80A80EE201A38EE010A04E0FCE17FE3AA
:1018600097E3E9E359E3D34880ED000AB749C87A22
:1018700004F0B5FEDFEDCD0A20EE208AB349087BE7
:1018800004F0ADFEF2EE040A00EE208AAF49487B78
:1018900004F0A5FE38EE008AAC49C87B04F09FFE38
:1018A000F2EE040A80EE201A38EE018AA749087C7D
:1018B00004F095FEDFEDBD0A80EE201A38EE018AB5
:1018C000A249487C04F08BFEDFEDB90A80EE201AB5
:1018D00038EE010AB74880ED010A9C49887C04F083
:1018E0007EFEDFEDB20A20EE208A9849C87C04F023
:1018F00076FEF2EE040A00EE208A9449087D04F098
:101900006EFE38EE008A9149887D04F068FEF2EEA2
:10191000040A80EE201A38EE018A8C49C87D04F052
:101920005EFEDFEDA20A80EE201A38EE018A8749BA
:10193000087E04F054FEDFED9E0A80EE201A38EE99
:10194000010A9C4880ED020A8049487E04F047FE67
:10195000DFED960A20EE208A7C49887E04F03FFE67
:10196000F2EE040A00EE208A7849C87E04F037FEC1
:1019700038EE008A7549487F04F031FEF2EE040A21
:1019800080EE201A38EE018A7049887F04F027FE25
:10199000DFED860A80EE201A38EE018A6B49C87F97
:1019A00004F01DFEDFED820A80EE201A38EE010AF7
:1019B000804880ED030A654991F8200004F00FFE8D
:1019C000DFED7A0A20EE208A604991F8210004F0C8
:1019D00006FEF2EE040A00EE208A5C4991F822002D
:1019E00004F0FDFD38EE008A584991F8240004F017
:1019F000F6FDF2EE040A80EE201A38EE018A534911
:101A000091F8250004F0EBFDDFED680A80EE201A66
:101A100038EE018A4D4991F8260004F0E0FDDFED33
:101A2000640A80EE201A38EE010A624880ED040A4A
:101A3000464991F8270004F0D2FDDFED5C0A20EE64
:101A4000208A424991F8280004F0C9FDF2EE040A08
:101A500000EE208A3D4991F8290004F0C0FD38EEDF
:101A6000008A3A4991F82B0004F0B9FDF2EE040A1D
:101A700080EE201A38EE018A344991F82C0004F0E7
:101A8000AEFDDFED4A0A80EE201A38EE018A2F49BA
:101A900091F82D0004F0A3FDDFED450A80EE201A39
:101AA00038EE010A434880ED050A01203E490870DE
:101AB000E3E22648C078732847D102F08DF902206E
:101AC0003949087000208CE0204A411D515C6C2986
:101AD00022D118B1022801D004280ED19FED360A78
:101AE000344901EB800181ED000A9FED340A34494D
:101AF00001EB800181ED000A72E09FED300A2D4973
:101B000001EB800181ED000A9FED2B0A2C4901EBCE
:101B1000800181ED000A63E00C4A411D515C72298D
:101B20005ED118B1022801D004284BD19FED230AC1
:101B3000204901EB800181ED000A9FED1F0A204939
:101B400001EB800181ED000A4AE04EE0C008002070
:101B500009000020060000200700002008000020E7
:101B60006C53544D20616E64205653475549206391
:101B70006F6E6E65637465642D000000735F6C505A
:101B800049522D006C547261636B696E67204D6F12
:101B90006465206163746976617465642D0000007A
:101BA000735F6C5049442D00200000200000C842A3
:101BB00000007A44140600200000164300000000D4
:101BC000FC0500201FED040AF84901EB800181EDBE
:101BD000000A1FED060AF64901EB800181ED000ABB
:101BE000401C0628FFF670AF35E0F248C078652843
:101BF00031D1002426E0F04800EB840090ED000A8B
:101C0000EA4800EB840080ED000AEB4800EB84001A
:101C100090ED000AE64800EB840080ED000AE648FB
:101C200000EB8400D0ED000AB0EE600A01A804F0D9
:101C3000BFFD4FF6FF7000EA8401042201A801F005
:101C400083FB641C062CD6DB01F0AEFB01F03AFDF1
:101C50000020DA49087010E2D648C07869287CD1A3
:101C6000D449087905F030F8F0EE408AD1498879F6
:101C700004F0B5FCB0EE408ACE49487904F0AFFCE0
:101C8000F2EE040A00EE208ACA49087A04F0A7FCA2
:101C9000F2EE040A80EE201A38EE018AC549487A2D
:101CA00004F09DFC5FED3F0A80EE201A38EE018AB9
:101CB000C049887A04F093FC5FED430A80EE201A55
:101CC00038EE010A28EE800ABD4880ED000AB949C5
:101CD000C87A04F0F9FFF0EE408AB649487B04F078
:101CE0007EFCB0EE408AB349087B04F078FCF2EE4B
:101CF000040A00EE208AAF49C87B04F070FCF2EEC3
:101D0000040A80EE201A38EE018AAA49087C04F001
:101D100066FC5FED5A0A80EE201A38EE018AA5496A
:101D2000487C04F05CFC5FED5E0A80EE201A38EE21
:101D3000010A28EE800AA24880ED010A9D49887CAC
:101D400004F0C2FFF0EE408A9A49087D04F047FC97
:101D5000B0EE408A9749C87C00E0DDE004F03FFC2B
:101D6000F2EE040A00EE208A9249887D04F037FCE6
:101D7000F2EE040A80EE201A38EE018A8D49C87D01
:101D800004F02DFC5FED770A80EE201A38EE018A10
:101D90008849087E04F023FC5FED7B0A80EE201A60
:101DA00038EE010A28EE800A854880ED020A814952
:101DB000487E04F089FFF0EE408A7E49C87E04F038
:101DC0000EFCB0EE408A7B49887E04F008FCF2EEFF
:101DD000040A00EE208A7749487F04F000FCF2EE06
:101DE000040A80EE201A38EE018A7249887F04F0D6
:101DF000F6FB5FED920A80EE201A38EE018A6D49FB
:101E0000C87F04F0ECFB5FED960A80EE201A38EEF6
:101E1000010A28EE800A6A4880ED030A654991F8B4
:101E2000200004F051FFF0EE408A624991F8220050
:101E300004F0D5FBB0EE408A5E4991F8210004F031
:101E4000CEFBF2EE040A00EE208A5A4991F82400F3
:101E500004F0C5FBF2EE040A80EE201A38EE018A87
:101E6000544991F8250004F0BAFB5FEDB00A80EE0A
:101E7000201A38EE018A4F4991F8260004F0AFFB92
:101E80005FEDB50A80EE201A38EE010A28EE800ACE
:101E90004B4880ED040A474991F8270004F014FFED
:101EA000F0EE408A434991F8290004F098FBB0EE27
:101EB000408A404991F8280004F091FBF2EE040AB0
:101EC00000EE208A3B4991F82B0004F088FBF2EEEB
:101ED000040A80EE201A38EE018A364991F82C0067
:101EE00004F07DFB5FEDCF0A80EE201A38EE018A08
:101EF000304991F82D0004F072FB5FEDD30A80EEBB
:101F0000201A38EE010A28EE800A2D4880ED050AD5
:101F100003202A490870B0E000BF002414E004EB5D
:101F2000C400284901EB8000D0ED070AB0EE600A3A
:101F300001A804F03DFC4FF6FF7000EA8401042282
:101F400001A801F001FA641C062CE8DB1EA003F0D6
:101F50005DFD26A003F07AFD0020184908708CE092
:101F60001448C078652808D0732810D1042013497C
:101F7000087001202049087009E020A003F046FD08
:101F800023A003F063FD00201B49087000BF00BFC1
:101F900073E00848C078652842D073284AD10520EC
:101FA0000649087001201D49087043E0140600200E
:101FB000FC050020C0080020AC000020200000200C
:101FC000C4040020240500206C49207361766564F8
:101FD0002074686520706F736974696F6E20737503
:101FE000636365737366756C6C792D00735F6C4900
:101FF000535450532D000000210000206C492071E3
:102000007569742044656D6F204D6F64652D000007
:10201000735F6C4951444D2D0000000022000020E8
:1020200018A003F0F3FC1DA003F010FD00201E49D2
:10203000087000BF00BF20E006201C49087000BFE8
:1020400000BF00BF00BF00BFBFF34F8F00BF00BF86
:1020500000BF1748006800F4E06016490843001DFF
:102060001349086000BF00BF00BFBFF34F8F00BF20
:1020700000BF00BF00BF00BFFDE700BF02B0BDEC66
:10208000028B10BD6C4920717569742043697263BD
:102090006C65204D6F64652D00000000735F6C4916
:1020A00051434D2D000000002200002020000020A0
:1020B0000CED00E00000FA0510B52DED028B82B0AA
:1020C000FA48807868287DD006DC63280BD0642825
:1020D00079D065283CD1F3E36B2875D0732874D090
:1020E0007428F7D135E0F148C07872281ED1F04845
:1020F000007888B1EFA003F089FCF4A003F0A6FCFF
:102100000120EB4908700020F3490870F34908707A
:102110000120F34908701BE0EF480078C0B10020AF
:10212000EF4908700120ED49087011E0DF48C078E0
:1021300064280DD10020E8490870DD490870E9A045
:1021400003F064FCEEA003F081FC0020EE4908706F
:1021500031E2D649087904F042FADFEDEC0A20EECC
:10216000208AD249487904F03AFAF2EE040A00EEE5
:10217000208ACE49887904F032FA38EE008ACB49B9
:10218000087A04F02CFAF2EE040A80EE201A38EEF7
:10219000018AC649487A04F022FADFEDDC0A80EEB3
:1021A000201A38EE018AC149887A04F018FADFED66
:1021B000D80A80EE201A38EE010AD64880ED000ACF
:1021C000BA4903E024E17CE3F6E156E3C87A04F07F
:1021D00006FADFEDCE0A20EE208AB449087B04F02F
:1021E000FEF9F2EE040A00EE208AB049487B04F0C2
:1021F000F6F938EE008AAD49C87B04F0F0F9F2EE4A
:10220000040A80EE201A38EE018AA849087C04F0FE
:10221000E6F9DFEDBE0A80EE201A38EE018AA34906
:10222000487C04F0DCF9DFEDBA0A80EE201A38EEC3
:10223000010AB84880ED010A9C49887C04F0CFF976
:10224000DFEDB20A20EE208A9849C87C04F0C7F975
:10225000F2EE040A00EE208A9449087D04F0BFF9EA
:1022600038EE008A9149887D04F0B9F9F2EE040A4B
:1022700080EE201A38EE018A8C49C87D04F0AFF94F
:10228000DFEDA20A80EE201A38EE018A8749087E27
:1022900004F0A5F9DFED9E0A80EE201A38EE010A5F
:1022A0009C4880ED020A8149487E04F098F9DFEDF0
:1022B000970A20EE208A7D49887E04F090F9F2EE9C
:1022C000040A00EE208A7949C87E04F088F938EEC5
:1022D000008A7649487F04F082F9F2EE040A80EE23
:1022E000201A38EE018A7149887F04F078F9DFED11
:1022F000870A80EE201A38EE018A6C49C87F04F004
:102300006EF9DFED830A80EE201A38EE010A81486B
:1023100080ED030A654991F8200004F060F9DFEDD3
:102320007B0A20EE208A614991F8210004F057F9D8
:10233000F2EE040A00EE208A5C4991F8220004F0D3
:102340004EF938EE008A594991F8240004F047F913
:10235000F2EE040A80EE201A38EE018A534991F811
:10236000250004F03CF9DFED690A80EE201A38EE12
:10237000018A4E4991F8260004F031F9DFED640A34
:1023800080EE201A38EE010A624880ED040A4749BF
:1023900091F8270004F023F9DFED5C0A20EE208A93
:1023A000424991F8280004F01AF9F2EE040A00EE0E
:1023B000208A3E4991F8290004F011F938EE008A8C
:1023C0003A4991F82B0004F00AF9F2EE040A80EE83
:1023D000201A38EE018A354991F82C0004F0FFF8F4
:1023E000DFED4A0A80EE201A38EE018A2F4991F873
:1023F0002D0004F0F4F8DFED460A80EE201A38EEE6
:10240000010A444880ED050A01203F490870C5E2F1
:102410002648C078732847D101F0DEFC02203A49F3
:10242000087000208DE0214A411D515C6C2922D1A9
:1024300018B1022801D004280ED19FED370A354982
:1024400001EB800181ED000A9FED340A344901EB74
:10245000800181ED000A73E09FED300A2D4901EB08
:10246000800181ED000A9FED2C0A2D4901EB8001CE
:1024700081ED000A64E00D4A411D515C72295FD173
:1024800018B1022801D004284CD19FED240A21491B
:1024900001EB800181ED000A9FED1F0A204901EB4D
:1024A000800181ED000A4BE04FE00000E80A0020C7
:1024B000090000206C416E64726F696420697320AA
:1024C00072756E6E696E672D00000000735F6C534D
:1024D0004141432D000000000800002006000020BC
:1024E000070000206C416E64726F6964206973207C
:1024F000646973636F6E6E65637465642D000000BC
:10250000735F6C544D412D00200000200000C84234
:1025100000007A441406002000001643000000006A
:10252000FC0500201FED040AF94901EB800181ED53
:10253000000A1FED060AF74901EB800181ED000A50
:10254000401C0628FFF66FAF35E0F348C0786528D9
:1025500031D1002426E0F14800EB840090ED000A20
:10256000EB4800EB840080ED000AEC4800EB8400AF
:1025700090ED000AE74800EB840080ED000AE74890
:1025800000EB8400D0ED000AB0EE600A01A804F070
:102590000FF94FF6FF7000EA8401042201A800F051
:1025A000D3FE641C062CD6DB00F0FEFE01F08AF898
:1025B0000020DB490870F1E1D748C07869287CD158
:1025C000D549087904F080FBF0EE408AD249887939
:1025D00004F005F8B0EE408ACF49487903F0FFFFD8
:1025E000F2EE040A00EE208ACB49087A03F0F7FFE6
:1025F000F2EE040A80EE201A38EE018AC649487AC3
:1026000003F0EDFF5FED3F0A80EE201A38EE018AFD
:10261000C149887A03F0E3FF5FED430A80EE201A98
:1026200038EE010A28EE800ABE4880ED000ABA4959
:10263000C87A04F049FBF0EE408AB749487B03F0C2
:10264000CEFFB0EE408AB449087B03F0C8FFF2EE3B
:10265000040A00EE208AB049C87B03F0C0FFF2EE06
:10266000040A80EE201A38EE018AAB49087C03F098
:10267000B6FF5FED5A0A80EE201A38EE018AA649AD
:10268000487C03F0ACFF5FED5E0A80EE201A38EE66
:10269000010A28EE800AA34880ED010A9E49887C41
:1026A00004F012FBF0EE408A9B49087D03F097FF8F
:1026B000B0EE408A9849C87C00E0DDE003F08FFF6F
:1026C000F2EE040A00EE208A9349887D03F087FF2A
:1026D000F2EE040A80EE201A38EE018A8E49C87D97
:1026E00003F07DFF5FED770A80EE201A38EE018A55
:1026F0008949087E03F073FF5FED7B0A80EE201AA4
:1027000038EE010A28EE800A864880ED020A8249E6
:10271000487E04F0D9FAF0EE408A7F49C87E03F083
:102720005EFFB0EE408A7C49887E03F058FFF2EEEF
:10273000040A00EE208A7849487F03F050FFF2EE49
:10274000040A80EE201A38EE018A7349887F03F06C
:1027500046FF5FED920A80EE201A38EE018A6E493C
:10276000C87F03F03CFF5FED960A80EE201A38EE3A
:10277000010A28EE800A6B4880ED030A664991F849
:10278000200004F0A1FAF0EE408A634991F822009B
:1027900003F025FFB0EE408A5F4991F8210003F075
:1027A0001EFFF2EE040A00EE208A5B4991F8240035
:1027B00003F015FFF2EE040A80EE201A38EE018ACB
:1027C000554991F8250003F00AFF5FEDB00A80EE4D
:1027D000201A38EE018A504991F8260003F0FFFED6
:1027E0005FEDB50A80EE201A38EE010A28EE800A65
:1027F0004C4880ED040A484991F8270004F064FA37
:10280000F0EE408A444991F8290003F0E8FEB0EE6A
:10281000408A414991F8280003F0E1FEF2EE040AF3
:1028200000EE208A3C4991F82B0003F0D8FEF2EE2E
:10283000040A80EE201A38EE018A374991F82C00FC
:1028400003F0CDFE5FEDCF0A80EE201A38EE018A4C
:10285000314991F82D0003F0C2FE5FEDD30A80EEFE
:10286000201A38EE010A28EE800A2E4880ED050A6B
:1028700003202B49087091E000BF002414E004EB12
:10288000C400294901EB8000D0ED070AB0EE600AD0
:1028900001A803F08DFF4FF6FF7000EA84010422C7
:1028A00001A800F051FD641C062CE8DB1FA003F01A
:1028B000ADF827A003F0CAF80020194908706DE0B0
:1028C00018E01548C078652808D0732810D1042076
:1028D0001349087001202149087009E020A003F085
:1028E00095F824A003F0B2F800201C49087000BF3E
:1028F00000BF53E00848C078652843D073284BD107
:1029000005200749087001201D49087044E00000B7
:1029100014060020FC050020E80A0020AC0000207E
:1029200020000020C4040020240500206C492073EE
:10293000617665642074686520706F736974696F6F
:102940006E207375636365737366756C6C792D00A7
:10295000735F6C49535450532D0000002100002038
:102960006C4920717569742044656D6F204D6F64EA
:10297000652D0000735F6C4951444D2D000000002F
:102980002200002008A003F041F80DA003F05EF83B
:1029900000200E49087000BF00BF00BF00BF02B09A
:1029A000BDEC028B10BD00006C492071756974206C
:1029B000436972636C65204D6F64652D00000000F3
:1029C000735F6C4951434D2D000000002200002030
:1029D00008B5C1788DF8031081788DF80210417820
:1029E0008DF8011001788DF800109DED000A08BDEA
:1029F00010B50246002030E0194B03EB800393ED45
:102A0000000A184B03EB8003D3ED000A30EE600A96
:102A1000154B03EB800383ED000A134B03EB80039C
:102A200093ED000AB5EEC00AF1EE10FA11D20123BF
:102A30000E4C23540C4B03EB800393ED000AFFEE86
:102A4000000A20EE200A084B03EB800383ED000A06
:102A500002E00023054C2354401C0628CCDB10BDAB
:102A600014060020FC0500202C0600202E0000206B
:102A700010B52DED088B3BA002F0C8FF3FA002F07F
:102A8000E5FF0121880702F049FC0121880702F0D7
:102A900048FCB0EE000AF0EE408A9FED3B0AB0EE33
:102AA000408A55E018EE100A05F06EFE41EC1B0B53
:102AB000B0EE4B0AF0EE6B0A03F06EF8B0EE40AAEF
:102AC000F0EE60AA9FED310B53EC102B51EC1A0B7A
:102AD00005F09AFB41EC190B05F00AF92D49086045
:102AE00018EE100A05F050FE41EC1B0BB0EE4B0A3D
:102AF000F0EE6B0A03F0B4F8B0EE40AAF0EE60AA74
:102B00009FED220B53EC102B51EC1A0B05F07CFBC4
:102B100041EC190B05F0ECF81E494860B3EE020ACF
:102B2000084680ED020A9FED180A80ED030A9FED2A
:102B3000160A80ED040A9FED140A80ED050A0020B4
:102B400001F0CEFB9FED140A38EE000AB0EE408A89
:102B5000124800780028A5D111490870BDEC088BF7
:102B600010BD00006C4920616D20696E20436972C0
:102B7000636C65204D6F64652D000000735F6C49C8
:102B80004149434D2D0000000000000000000000FE
:102B900000000040C4040020ACC403382200002020
:102BA0002000002010B50021114800F08BF81149D9
:102BB0000F4800F06DF81048007870280BD10E48CF
:102BC00040782D2807D10C4890F833000A2802D10C
:102BD00002F05CFF06E034210748FDF733FD0020DA
:102BE000064908700121024800F06CF810BD000091
:102BF0002860024000880010C0080020000000206B
:102C000010B50021114800F05DF811490F4800F09F
:102C10003FF81048007861280BD10E4840782D28E5
:102C200007D10C4890F833000A2802D102F064FF63
:102C300006E034210748FDF705FD0020064908702D
:102C40000121024800F03EF810BD0000406402403F
:102C500000802010E80A0020010000200246094BF5
:102C60009A4201D2084801E00648103801F00053AA
:102C70001BB1064B0B40C36002E0044B0B4083606A
:102C80007047000010640240006002407D0F7D0F1D
:102C90000246094B9A4201D2084801E00648103822
:102CA00001F000531BB1064B0B40C36002E0044B24
:102CB0000B408360704700001064024000600240D7
:102CC0007D0F7D0F21B1026842F00102026003E036
:102CD000026822F001020260704710B501F0800323
:102CE0004BB122B1436943F08003436103E0436980
:102CF00023F08003436180290BD02AB1036801F0DF
:102D00001E042343036004E0036801F01E04A34390
:102D1000036010BD10B500220268134B1A40CC6846
:102D20000B6823434C6923438C692343CC692343B9
:102D30000C6A23434C6A23438C6A23434C6B234322
:102D40008C6B23431A430260426922F00702D1E9E7
:102D50000B3423431A4342610B6943604B68836021
:102D60008B68C36010BD00003F801CF010B5FBA055
:102D700002F04CFEFEA002F069FE0121880702F07D
:102D8000CDFA0121880702F0CCFA5AE2FB4800781C
:102D9000D8B19FEDFB0AFB4880ED000A9FEDF80AD1
:102DA00080ED010AB2EE0E0A80ED020A9FEDF40AF0
:102DB00080ED030A9FEDF20A80ED040A9FEDF00A10
:102DC00080ED050A002001F08BFAEC480078D8B1BC
:102DD0009FEDEB0AEB4880ED000A9FEDE90A80EDDC
:102DE000010AB3EE040A80ED020A9FEDE50A80EDC8
:102DF000030A9FEDE30A80ED040A9FEDE10A80EDEE
:102E0000050A002001F06CFADC480078D8B19FED8B
:102E1000DC0ADC4880ED000A9FEDD90A80ED010A4A
:102E2000B3EE020A80ED020A9FEDD50A80ED030A97
:102E30009FEDD30A80ED040A9FEDD10A80ED050ACB
:102E4000002001F04DFACD480078D8B1B9EE000A63
:102E5000CC4880ED000A9FEDCA0A80ED010AB3EE6E
:102E6000020A80ED020A9FEDC60A80ED030A9FED7B
:102E7000C40A80ED040A9FEDC20A80ED050A002015
:102E800001F02EFABD48007800287DD0BE480078B9
:102E900004287AD1BC48007804281BD19FEDB80AD9
:102EA000B84880ED000AB9EE000A80ED010AB3EEE1
:102EB000020A80ED020A9FEDB20A80ED030A9FED3F
:102EC000B00A80ED040A9FEDAE0A80ED050A0020ED
:102ED00001F006FAAC48007804281BD19FEDA80A3F
:102EE000A84880ED000AB1EE000A80ED010AB3EEB9
:102EF000020A80ED020A9FEDA20A80ED030A9FED0F
:102F0000A00A80ED040A9FED9E0A80ED050A0020CC
:102F100001F0E6F99C48007804287CD19A480078B2
:102F200004281BD19FED960A964880ED000A9FED7C
:102F3000940A80ED010AB3EE020A80ED020AB9EEAE
:102F4000080A80ED030A9FED8E0A80ED040A9FEDCA
:102F50008C0A80ED050A002001F0C2F98A48007849
:102F600004281ED19FED860A864880ED000A9FED59
:102F7000840A80ED010AB3EE020A80ED020AB1EE86
:102F8000080A80ED030A01E05BE13EE19FED7C0A67
:102F900080ED040A9FED7A0A80ED050A002001F019
:102FA0009FF97948007804281BD19FED750A754870
:102FB00080ED000A9FED720A80ED010AB3EE020A6D
:102FC00080ED020A9FED6E0A80ED030A9FED6C0A08
:102FD00080ED040A9FED6A0A80ED050A002001F0E9
:102FE0007FF96948007804281DD19FED650A65487E
:102FF00080ED000A9FED620A80ED010AB3EE020A3D
:1030000080ED020A9FED5E0A80ED030AB9EE080A20
:1030100080ED040A00E0DCE09FED590A80ED050A2E
:10302000002001F05DF95848007804281BD19FED7D
:10303000540A544880ED000A9FED510A80ED010AC0
:10304000B3EE020A80ED020A9FED4D0A80ED030AFD
:10305000B1EE080A80ED040A9FED490A80ED050AE9
:10306000002001F03DF94848007804281BD19FED6D
:10307000440A444880ED000A9FED410A80ED010AB0
:10308000B3EE020A80ED020A9FED3D0A80ED030ACD
:103090009FED3B0A80ED040A9FED390A80ED050A99
:1030A000002001F01DF93848007804281BD19FED5D
:1030B000340A344880ED000A9FED310A80ED010AA0
:1030C000B3EE020A80ED020A9FED2D0A80ED030A9D
:1030D0009FED2B0A80ED040AB9EE080A80ED050A7F
:1030E000002001F0FDF82848007804281BD19FED4E
:1030F000240A244880ED000A9FED210A80ED010A90
:10310000B3EE020A80ED020A9FED1D0A80ED030A6C
:103110009FED1B0A80ED040AB1EE080A80ED050A56
:10312000002001F0DDF818480078042835D19FED23
:10313000140A144880ED000A9FED110A80ED010A7F
:10314000B3EE020A80ED020A9FED0D0A80ED030A3C
:103150009FED0B0A80ED040A18E000006C49206125
:103160006D20696E2044656D6F204D6F64652D0084
:10317000735F6C494149444D2D000000210000203F
:1031800000000000C4040020200000201FED040AFD
:1031900080ED050A002001F0A3F81FED070A2D4875
:1031A00080ED000A1FED0A0A80ED010AB3EE020A63
:1031B00080ED020A1FED0E0A80ED030A1FED100AD2
:1031C00080ED040A1FED120A80ED050A002001F0CF
:1031D00087F81FED150A1F4880ED000A1FED180A39
:1031E00080ED010AB3EE020A80ED020A1FED1C0A0F
:1031F00080ED030A1FED1E0A80ED040A1FED200A70
:1032000080ED050A002001F06BF8B1EE000A1148CC
:1032100080ED000A1FED260A80ED010AB3EE020AD6
:1032200080ED020A1FED2A0A80ED030A1FED2C0A29
:1032300080ED040A1FED2E0A80ED050A002001F042
:103240004FF80548007800287FF4A0AD03490870C6
:1032500010BD0000C4040020210000202000002038
:1032600000B587B04FF44070059002208DF818002B
:103270008DF8190001208DF81A0000208DF81B0030
:1032800005A9184800F05AFC04220921154800F04D
:103290009DFC04220821134800F098FC01214805F8
:1032A00001F022FB104800F0EBFD104801900020D7
:1032B000ADF808004BF6FF70ADF80A000020ADF83D
:1032C0000C004FF48060ADF80E000001ADF8100066
:1032D00001A9054800F03AFE0121034800F0C3FDB2
:1032E00007B000BD0004024000540040801A0600F0
:1032F0002DE9F84305460F46904600261EE04FF0A4
:10330000A009B81984B2B4F5007F02DB0020BDE843
:10331000F883FF2C04DDA4F5807084B249F0020923
:103320000120E3B24A4629460090064800F082FE9A
:1033300008B90020EBE76D1C701C86B24645DEDB49
:103340000120E4E7005400402DE9F84305460F460C
:103350009046002622E04FF0A009B81984B2B4F5D7
:10336000007F02DB0020BDE8F883FF2C04DDA4F51C
:10337000807084B249F002090120E3B24A4629462E
:103380000090084800F012FF08B90020EBE76D1C20
:1033900041F2883004F0BEFA701C86B24645DADB92
:1033A0000120E0E70054004010B50421074800F078
:1033B0003BFC0A2400BF201EA4F10101CCB2FAD1CB
:1033C0000421024800F02EFC10BD0000000C024059
:1033D0001FB50121084601F087FA5320ADF804001B
:1033E00040F2E73002900020ADF80C00ADF8060086
:1033F00001A94FF0804001F0BBFF01221146900768
:1034000001F0ACFF00214FF0804001F08AFF1C204A
:103410008DF8000002208DF8010001208DF80200D7
:103420008DF80300684601F079F81FBD10B54FF420
:10343000805000F095F870B14FF4805000F08AF899
:103440000120254908702548007808B1012000E0D6
:103450000020234908704FF4005000F081F878B143
:103460004FF4005000F076F801201B4981F8240049
:103470001A48407808B1012000E00020184948703F
:103480004FF4804000F06CF878B14FF4804000F0C9
:1034900061F80120104981F848001048807808B18F
:1034A000012000E000200E4988704FF4004000F039
:1034B00057F878B14FF4004000F04CF8012006496D
:1034C00081F86C000548C07808B1012000E00020B8
:1034D0000349C87010BD0000240500202E00002004
:1034E0003400002010B5022000F03AF870B102203C
:1034F00000F030F80120064981F8B4000548407911
:1035000008B1012000E000200349487110BD00000F
:10351000240500202E0000203400002010B50420D7
:1035200000F01EF870B1042000F014F801200649E4
:1035300081F890000548007908B1012000E00020E2
:103540000349087110BD0000240500202E00002052
:10355000340000200149086070470000143C01401D
:1035600001460020034A12680A400AB1012000E027
:1035700000207047143C0140002123498279002A31
:103580003AD00A46126803689A430B461A600A1D2D
:10359000126803689A430B1D1A60027911440A6885
:1035A00003681A430A60184A0832126803689A438B
:1035B000154B08331A601A1D126803689A43124BA0
:1035C0000C331A604279102A0ED11A1F1268036850
:1035D0001A430D4B08331A601A1D126803681A4308
:1035E000094B0C331A600DE00749427911440A680F
:1035F00003681A430A6005E0027911440A68036807
:103600009A430A6070470000003C014070B50646CE
:1036100024A12548FCF793FF2348FCF771FF84B2EF
:1036200020A12248FCF78BFF2048FCF769FF85B2F8
:103630001D48FCF765FFA0B100211D48FFF742FBC4
:10364000224619491B48FCF786FF4FF0C051184825
:10365000FFF704FB16485838C46501211448FFF7EA
:1036600031FB1248FCF74CFF98B100211248FFF7DC
:1036700029FB2A460D491148FCF76DFF10490E48F9
:10368000FFF7ECFA0C48001D05600121001FFFF751
:1036900019FB21460448FCF7D5FF29460348FCF7EF
:1036A000D1FF70BD0A000000DC000020D002002025
:1036B00058600240CC060020A0640240F4080020BC
:1036C0000000202000201EE0104901EB800191ED58
:1036D000000A00EBC0010E4A02EB810181ED070AEE
:1036E0009FED0C0A00EBC00102EB810181ED080A9D
:1036F0000021094A42F82010084A42F82010084ADE
:1037000042F82010401C0628DEDB7047AC00002089
:103710002405002000000000DC040020F404002048
:103720000C05002010B500245CE0204600F0FAF9FA
:103730002E4941F82400084650F824002C4951F83D
:103740002410401A2B4941F82400084650F8240060
:1037500010F5004F07DA084650F8240000F58030D5
:1037600041F824000DE0234850F82400B0F5004F44
:1037700007DD204850F82400A0F580301D4941F8AD
:1037800024001A4850F82400194941F82400E1B2F5
:10379000184A52F8240004F037F904EBC400164923
:1037A00001EB8000D0ED070A30EE200A04EBC400E4
:1037B00001EB800080ED070A04EBC40001EB800000
:1037C000D0ED080A0B4850F8240000EE100AB8EEBD
:1037D000C00A30EE800A04EBC40001EB800080EDEB
:1037E000080A641C062CA0DB10BD0000F4040020B5
:1037F0000C050020DC0400202405002010B592B048
:1038000003AC0121084601F05FF80121022001F01C
:103810004BF80121082001F047F80121102001F0A8
:1038200043F80C220021744800F0D0F90C22012149
:10383000714800F0CBF90C2204216F4800F0C6F962
:103840000C2205216C4800F0C1F90C2207216A48BE
:1038500000F0BCF90C220821674800F0B7F90C22EF
:103860000921654800F0B2F90C220A21624800F0F3
:10387000ADF90C220E21604800F0A8F90C220F21AE
:103880005D4800F0A3F90C2207215C4800F09EF986
:103890000C220821594800F099F90C2209215748B7
:1038A00000F094F90C220A21544800F08FF90C2200
:1038B0000B21524800F08AF90C2211464F4800F0C3
:1038C00085F90C220D214D4800F080F90C220E21C3
:1038D0004A4800F07BF90C220F21484800F076F9A5
:1038E0000C220721464800F071F94CF2B3700190A8
:1038F00002208DF8080003208DF8090000208DF8C3
:103900000A008DF80B0001A93B4800F017F94FF6AB
:103910008070019001A9394800F010F980200190D1
:1039200001A9374800F00AF90020206002206060F9
:103930000820A0601020E060002020616061A0618C
:10394000E06120624FF4805060620020A062E0627B
:1039500020630F20616B0860616B4860616B886059
:103960000020616BC860616B0861616B48614FF05A
:103970000050616B88610F20A16B0860A16B4860EB
:103980002020A16B88600020A16BC860A16B08613A
:10399000A16B48614FF00050A16B886103A800F053
:1039A0004DF818484FF0204148600121002000F0F8
:1039B0002BF840F60400019001208DF80800032048
:1039C0008DF8090000208DF80A008DF80B0001A980
:1039D000094800F0B3F80421074800F023F9082053
:1039E000019000208DF808008DF80B0001A9024815
:1039F00000F0A4F812B010BD000C0240001002400C
:103A0000000402400303012051B18200A2F1C04230
:103A1000126842F001038200A2F1C042136009E083
:103A20008200A2F1C0421268034B1A408300A3F146
:103A3000C0431A6070470000FEFF0F00D0E901127A
:103A40001143C268114302691143426911438269FB
:103A50001143C2691143026A1143426A1143826AE7
:103A60001143C26A1143026B114302689200A2F132
:103A7000C0421160816808290BD101688900A1F159
:103A8000C041096841F0400201688900A1F1C041CC
:103A90000A60416B0968426B526841EA0211426B4D
:103AA000926841EA0221426B928941EA0241426BEB
:103AB000128A41EA0251426B127D41EA0261426B75
:103AC000926911430268521C9200A2F1C042116037
:103AD000C16AB1F5804F1BD1816B0968826B526856
:103AE00041EA0211826B926841EA0221826B128ADA
:103AF00041EA0251826B127D41EA0261826B926956
:103B0000114302689200A2F1C042C2F8041107E01A
:103B10006FF0704201688900A1F1C041C1F8042131
:103B20007047000001460020024B03EB4102108861
:103B3000704700002000006001807047F0B50A4621
:103B400000210023002400BF3DE0012505FA01F318
:103B5000156805EA03049C4234D105684F0003262A
:103B6000BE40B543056015794E00B5400668354343
:103B700005601579012D02D01579022D16D18568C1
:103B80004F000326BE40B543856055794E00B540D1
:103B9000866835438560456801268E40B54345609B
:103BA000456896798E40B6B235434560C5684F008A
:103BB0000326BE40B543C560D5794E00B540C66802
:103BC0003543C560491C1029BFD3F0BDF0B50023B3
:103BD00000244D07ED0E02FA05F3CE1000F120058A
:103BE00055F826504E07F70E0F26BE40B543CF10AE
:103BF00000F1200646F82750CE1000F1200555F8B8
:103C0000265045EA0304CE1000F1200545F8264071
:103C1000F0BD0246002013690B400BB1012000E00B
:103C200000207047418370470183704710B598B0FA
:103C300051A001F0EBFE57A001F008FF00214FF06A
:103C4000804001F06EFB1822554912A8FCF7C8FC11
:103C5000002010901190012210A912A800F0A4FCDD
:103C600050495148FEF7C4FE01225049504800F027
:103C70009BFC00BF00F0BEF80028FBD0002011E044
:103C80009FED4C0A00EBC0014B4A02EB810181ED34
:103C9000070A9FED480A00EBC00102EB810181EDAC
:103CA000080A401C0628EBDB322002F09FFC0121B1
:103CB000880701F033FB0121880701F032FB18224D
:103CC000374918310AA8FCF78BFC002008900990AE
:103CD000012208A90AA800F067FC322002F086FC45
:103CE00018222F49303102A8FCF77AFC33A103C90E
:103CF000CDE900010122694602A800F055FC3220FE
:103D000002F074FC002013E09FED2A0A264901EB23
:103D1000800181ED000A00EBC001274A02EB81011E
:103D200091ED070A1F4901EB800181ED000A401C5B
:103D30000628E9DB1B491C48FEF75AFE01221B49F5
:103D40001B4800F031FC1F48FCF7DAFB0446214613
:103D50001C48FCF777FC1CA001F058FE1CA001F0E9
:103D600075FE1848FFF752FC00214FF0804001F02B
:103D7000D8FA18B010BD00006C4920616D20696E42
:103D800020486F6D65205363616E204D6F64652D13
:103D900000000000735F6C49414948534D2D0000FD
:103DA00084880008FC050020140600202E00002056
:103DB0002C06002000000000240500200101010164
:103DC00001010000DC0000206866612D0000000099
:103DD000735F6866612D0000002006E0002100EBA3
:103DE000C002034B03F82210401C0628F6DB704784
:103DF0002405002010B500210DE00122002006E07E
:103E000000EBC003064C14F823301A40401C06286F
:103E1000F6DB114600BF0029EFD0084610BD0000B8
:103E20002405002021B1028842F48062028004E06F
:103E300002884FF6FF331A400280704770B5024681
:103E40000024002500230020958A138B1B0445EADB
:103E5000030626F07F4404EA01068E4201D10120C8
:103E600000E0002070BD21B1028842F00102028012
:103E700004E002884FF6FE731A400280704700008B
:103E800010B504461348844209D10121480500F0C9
:103E90003BFD00214FF4001000F036FD18E00E4805
:103EA000844209D10121880500F02EFD00214FF444
:103EB000800000F029FD0BE00848844208D1012170
:103EC000C80500F021FD00214FF4000000F01CFDAA
:103ED00010BD00000054004000580040005C00404D
:103EE00021B1028842F48072028004E002884FF619
:103EF000FF631A400280704721B1028842F40072C9
:103F0000028004E002884FF6FF531A400280704797
:103F10000CB50246002000230193009300920B0F82
:103F2000019321F07F41019B1BB1009B143300934F
:103F300003E0090C009B18330093009B1B680B40A7
:103F40000BB1012000E000200CBD00002DE9FF476F
:103F500004460D460026B1460427DFF8CC80A6882B
:103F60004FF6C0700640684600F0EEFCDDF80880B1
:103F70002E48B8FBF0F01FFA80F946EA0906A68041
:103F800020884FF6FE7108402080002628492868C6
:103F900088420CD828684000B8FBF0F087B2042FA4
:103FA00000DA04273E4309F10100208427E0E88875
:103FB0004BF6FF71884206D1286800EB4000B8FB41
:103FC000F0F087B209E0286800EBC00101EB0010B7
:103FD000B8FBF0F087B247F48047C7F30B0008B98D
:103FE00047F0010747F4004006434FF4967009FB81
:103FF00000F04FF47A7190FBF1F0401C2084A6830E
:10400000208840F00100208026884FF6F5300640D9
:10401000A8886989084306432680A8892989084316
:104020002081BDE8FF87000000127A0040420F00A7
:10403000A08601002DE9F04707460E4690469946B6
:10404000089D15B90020BDE8F0874E4C04E0201E05
:10405000A4F1010400D1F6E74FF400313846FFF730
:1040600057FF0028F3D101213846FFF739FF454CAF
:1040700004E0201EA4F1010400D1E4E742493846DF
:10408000FFF7DCFE0028F4D000224146384600F05D
:1040900083F83C4C04E0201EA4F1010400D1D2E7D7
:1040A0003A493846FFF7CAFE0028F4D04946384658
:1040B00000F07AF8334C04E0201EA4F1010400D192
:1040C000C1E73249891C3846FFF7B8FE0028F3D013
:1040D00001213846FFF704FF2A4C04E0201EA4F11A
:1040E000010400D1AFE728493846FFF7A7FE0028B2
:1040F000F4D001224146384600F04EF872B6214C09
:1041000004E0201EA4F1010400D19CE71E49491CD3
:104110003846FFF793FE0028F3D01EE0012D07D1AB
:1041200000213846FFF77EFE01213846FFF7E4FE06
:10413000144C04E0201EA4F1010400D183E71249CD
:104140003F313846FFF77AFE0028F3D0384600F0BA
:104150001FF83070761C681EC5B2002DDED1094CE8
:1041600004E0201EA4F1010400D16CE7388800F4BB
:1041700000700028F5D101213846FFF753FE62B6E2
:10418000012060E7A0860100010003008200070013
:104190000146088AC0B2704712B141F0010101E046
:1041A00001F0FE0101827047018270472DE9F0475E
:1041B00081460D4616461F46DDF8208001214846FF
:1041C000FFF730FE334C05E0201EA4F1010401D1BD
:1041D000BDE8F0874FF400314846FFF799FE00280C
:1041E000F2D101214846FFF77BFE2A4C04E0201E55
:1041F000A4F1010400D1EBE727494846FFF71EFE72
:104200000028F4D0002231464846FFF7C5FF214C74
:1042100004E0201EA4F1010400D1D9E71F4948465B
:10422000FFF70CFE0028F4D039464846FFF7BCFFE4
:10423000184C04E0201EA4F1010400D1C8E717497E
:10424000891C4846FFF7FAFD0028F3D072B616E045
:1042500029784846FFF7A8FF6D1CA8F1010000F07F
:10426000FF080C4C04E0201EA4F1010400D1AFE7CC
:104270000A49891C4846FFF7E1FD0028F3D0B8F150
:10428000000FE5D101214846FFF736FE62B6012056
:104290009EE70000A08601000100030082000700E5
:1042A00010B50121880701F039F80121880701F0D4
:1042B00038F803A001F0AAFB06A001F0C7FB10BD6F
:1042C0006C4920616D20696E2049646C65204D6FDA
:1042D00064652D00735F6C494149494D2D00000014
:1042E00030B58DB004462CB163A001F08FFB6BA0FC
:1042F00001F0ACFB0121880701F010F801218807CB
:1043000001F00FF80AA803F06FFB01A802F030FEDD
:10431000654A01A90AA802F0A1FA0025002030E0B0
:10432000614901EB800191ED000A604901EB8001D8
:10433000D1ED000AB0EE001A70EEC10AB4EEE00A48
:10434000F1EE10FA1BDC584901EB800191ED000AF7
:10435000574901EB8001D1ED000AB0EE001A70EE72
:10436000810AB4EEE00AF1EE10FA08D34E4A52F890
:10437000201021F00042C2F1FF42D20F02B101250C
:10438000401C0628CCDB002D62D1002043E04649CA
:1043900001EB800191ED000A444901EB8001D1ED70
:1043A000000AB0EE001A70EEC10AB4EEE00AF1EEB7
:1043B00010FA0EDB3D4901EB800191ED000AF0EEB1
:1043C000000A30EE600A384901EB800181ED000AF5
:1043D00020E0354901EB800191ED000A344901EB01
:1043E0008001D1ED000AB0EE001A70EE810AB4EE41
:1043F000E00AF1EE10FA0DD82D4901EB800191EDA4
:10440000000AF0EE000A30EE200A274901EB800195
:1044100081ED000A401C0628B9DB26492248FEF738
:10442000E7FA00222449254800F0BEF800200CE0FD
:1044300000EBC001224A02EB810191ED070A1D4900
:1044400001EB800181ED000A401C0628F0DB06E04C
:104450002CB11CA001F0DAFA24A001F0F7FA2CB17B
:1044600025A001F0D3FA29A001F0F0FA14B1002040
:10447000294908700DB030BD6C4920616D20696E0E
:1044800020496E7665727365204B696E656D617447
:104490006963204D6F64652D00000000735F6C49F7
:1044A0004149494B4D2D000014060020C400002056
:1044B000AC000020FC0500202E0000202C0600206F
:1044C000240500206C492063616E206E6F742063A8
:1044D000616C63756C61746520696E766572736575
:1044E000206B696E656D617469632D00735F6C4943
:1044F000434E43494B2D00006C4920616D20696E8D
:104500002049646C65204D6F64652D00735F6C49B4
:104510004149494D2D0000002000002070B50021C8
:1045200000230F22C4781CB3174C246804F4E06401
:10453000C4F5E064C4F30721C1F10404E3B20A4105
:1045400044789C40E1B28478144021430C07210E4A
:104550000E4C05786155047804F01F050124AC4029
:1045600005786D11AD0005F1E025C5F8004109E0C1
:10457000047804F01F050124AC40054D067876113F
:1045800045F8264070BD00000CED00E000E400E0BE
:1045900080E100E002490143024A116070470000D7
:1045A0000000FA050CED00E0F0B52DED028B83B0B4
:1045B00005460E461746AE480770AE4903C9CDE919
:1045C00001019FEDAD0AB0EE408A002008E09FEDAA
:1045D000AB0AAB4901EB800181ED000A411CC8B276
:1045E0000428F4DB002013E0315CA64A11540021BA
:1045F0000AE09FEDA20AA44A02EB001202EB81023C
:1046000082ED000A4A1CD1B20429F2DB411CC8B277
:104610000628E9DB00248AE0002004EBC4019B4A61
:1046200002EB810108769FED950A04EBC400114668
:1046300001EB800080ED050A9FED900A944800EBA5
:10464000840080ED000A05EB840090ED000AB5EED1
:10465000C00AF1EE10FA66D0012C0ED005EB8400F2
:10466000D0ED000AB0EE600A03F068F904EBC40173
:10467000864A02EB8101086113E005EB840090EDAE
:10468000000AF0EE000A80EE201AF0EE418AB0EE49
:10469000680A03F053F904EBC4017C4A02EB810180
:1046A000086104EBC400794901EB800000693228FD
:1046B00007D8012004EBC401744A02EB810108769B
:1046C0002DE06B480078E8B1E0B205EB8401D1ED54
:1046D000000AB0EE600A6A49F0EE480A03F0B4F945
:1046E00000200CE0664901EB800191ED000A66496B
:1046F00001EB041101EB800181ED000A401C04284C
:10470000F0DB0CE005EB840090ED000ADFED610AC0
:1047100080EE201A5E4800EB840080ED001A002035
:104720005D49085502E001205B490855641C062CD0
:10473000FFF672AF002011E09FED500A00EBC001C0
:10474000524A02EB810181ED010A9FED540A00EB10
:10475000C00102EB810181ED020A401C0628EBDB5F
:1047600000204F49087001214E4800F0D7FD01217B
:104770004C4800F0D6FD60E000245CE001A8005D3C
:1047800078B300200CE0404901EB041101EB8001FB
:1047900091ED000A3A4901EB800181ED000A401CCD
:1047A0000428F0DB32480078E0B104EBC40037495C
:1047B00001EB800090ED021AF0EE410A04EBC40018
:1047C00001EB800090ED011AB0EE410A21462C4821
:1047D00003F06AF904EBC4012C4A02EB8101C860C2
:1047E00021E026E02A4800EB8400D0ED001AB0EE6C
:1047F000611A04EBC400254901EB8000D0ED021AD8
:10480000F0EE610A04EBC40001EB8000D0ED011A68
:10481000B0EE610A204603F073F904EBC4011B4AB1
:1048200002EB8101C860002001A9085501201C4944
:104830000870601CC4B2062CA0DB1748007816492B
:10484000497808401449897808401349C9780840D4
:1048500011490979084010494979084000288BD04E
:104860000021104800F05DFD03B0BDEC028BF0BDEF
:104870003B000020CC880008C3F5283F0000000062
:1048800044060020280000205406002024050020B3
:10489000B40600206666E640340000206F12833ABA
:1048A0003A0000200004004029B1064A1268024381
:1048B000044B1A6004E0034A12688243014B1A60F9
:1048C000704700003038024029B1064A126802439E
:1048D000044B1A6004E0034A12688243014B1A60D9
:1048E000704700003838024029B1064A1268024376
:1048F000044B1A6004E0034A12688243014B1A60B9
:10490000704700004038024029B1064A126802434D
:10491000044B1A6004E0034A12688243014B1A6098
:10492000704700002038024029B1064A126802434D
:10493000044B1A6004E0034A12688243014B1A6078
:104940007047000044380240F0B5002100220024E6
:10495000022500260223324F3F6807F00C0121B1E7
:10496000042905D0082937D105E02E4F076036E02D
:104970002D4F076033E02A4F3F1F3F68C7F3805633
:10498000274F3F1F3F6807F03F036EB1264FB7FB2D
:10499000F3F7DFF88CC0ACF1040CDCF800C0CCF30A
:1049A000881C07FB0CF40CE01E4FB7FBF3F7DFF895
:1049B00070C0ACF1040CDCF800C0CCF3881C07FB21
:1049C0000CF4174F3F1F3F68C7F301477F1C7D0062
:1049D000B4FBF5F7076002E0124F076000BF00BFAD
:1049E0000F4F3F6807F0F0010909104F7A5C076824
:1049F000D74047600A4F3F6807F4E051890A0B4FE0
:104A00007A5C4768D7408760054F3F6807F460418C
:104A1000490B064F7A5C4768D740C760F0BD00007D
:104A2000083802400024F40000127A000B00002035
:104A300070B506460C46062E74D2DFE806F0031663
:104A4000293C4F614FF480513848FFF7E2F80028C5
:104A500001DD012000E00020002C01DC012100E04C
:104A60000021084380F001055CE04FF400512F481D
:104A7000FFF7CFF8002801DD012000E00020002C26
:104A800001DC012100E00021084380F0010549E03C
:104A90004FF480412548FFF7BCF8002801DD0120D4
:104AA00000E00020002C01DC012100E0002108438F
:104AB00080F0010536E04FF400411C48FFF7A9F8EB
:104AC000002801DD012000E00020002C01DC012194
:104AD00000E00021084380F0010523E00421144890
:104AE000FFF797F8002801DD012000E00020002CEE
:104AF00001DC012100E00021084380F0010511E004
:104B000002210B48FFF785F8002801DD012000E0B5
:104B10000020002C01DC012100E00021084380F08E
:104B2000010500BF00BF284670BD00000004024020
:104B30000000024030B500228B071C0F0F2303FA40
:104B400004F20B4B8C1053F824309343084C8D1017
:104B500044F8253023468C1053F824308C07240F5A
:104B600000FA04F42343024C8D1044F8253030BD84
:104B7000083801401FB501210220FFF7B5FE532080
:104B8000ADF8040040F2E73002900020ADF80C00D0
:104B9000ADF8060001A90D4800F0EAFB012211461C
:104BA0000A4800F0DBFB0021084800F0BAFB1D209A
:104BB0008DF8000000208DF801008DF80200012022
:104BC0008DF803006846FFF7A9FC1FBD00040040F4
:104BD00000B585B001218803FFF7A6FE0121022060
:104BE000FFF762FE00208DF810004FF48050039014
:104BF00000208DF8120003208DF8110001208DF89F
:104C0000130003A99C48FEF799FF0C210120FFF730
:104C100091FF4FF48050019000208DF808000C2087
:104C20008DF8090001208DF80A0001A8FEF7A4FC08
:104C300028208DF8000000208DF801008DF802007A
:104C400001208DF803006846FFF768FC012102206F
:104C5000FFF72AFE00208DF810004FF4005003905B
:104C600000208DF8120003208DF8110001208DF82E
:104C7000130003A98048FEF761FF0D210120FFF713
:104C800059FF4FF40050019000208DF808000C20CF
:104C90008DF8090001208DF80A0001A8FEF76CFCD0
:104CA00028208DF8000000208DF801008DF802000A
:104CB00001208DF803006846FFF730FC0121022037
:104CC000FFF7F2FD00208DF810004FF480400390B4
:104CD00000208DF8120003208DF8110001208DF8BE
:104CE000130003A96448FEF729FF0E210120FFF7F6
:104CF00021FF4FF48040019000208DF808000C2027
:104D00008DF8090001208DF80A0001A8FEF734FC97
:104D100028208DF8000000208DF801008DF8020099
:104D200001208DF803006846FFF7F8FB01210220FF
:104D3000FFF7BAFD00208DF810004FF400400390FB
:104D400000208DF8120003208DF8110001208DF84D
:104D5000130003A94848FEF7F1FE0F210120FFF7D9
:104D6000E9FE4FF40040019000208DF808000C206F
:104D70008DF8090001208DF80A0001A8FEF7FCFB60
:104D800028208DF8000000208DF801008DF8020029
:104D900001208DF803006846FFF7C0FB012108469B
:104DA000FFF782FD00208DF8100004200390002002
:104DB0008DF8120003208DF8110001208DF81300EA
:104DC00003A92E48FEF7BAFE02210020FFF7B2FE2B
:104DD0000420019000208DF808000C208DF80900B7
:104DE00001208DF80A0001A8FEF7C6FB08208DF807
:104DF000000000208DF801008DF8020001208DF8E0
:104E000003006846FFF78AFB01210846FFF74CFDC7
:104E100000208DF810000220039000208DF8120071
:104E200003208DF8110001208DF8130003A9134809
:104E3000FEF784FE01210020FFF77CFE0220019096
:104E400000208DF808000C208DF8090001208DF855
:104E50000A0001A8FEF790FB07208DF80000002053
:104E60008DF801008DF8020001208DF803006846DE
:104E7000FFF754FB05B000BD0004024000000240F3
:104E80002DE9F04100247BE08E48015D2046FFF7CC
:104E9000CFFD8D490E193178084308B1012000E09B
:104EA0000020074630708848005D01280DD18548F4
:104EB000025D0021204600F017F9002004EBC40138
:104EC000824A02EB8101086158E004EBC4007F498B
:104ED00001EB8000007E012815D17A48025D04EBC9
:104EE000C4000B4603EB80000169204600F0FCF88B
:104EF000002004EBC401754A02EB81010861012026
:104F0000714908553AE004EBC400704901EB800098
:104F10000069052815D86B48025D04EBC4000B46F8
:104F200003EB80000169204600F0DEF8002004EB6E
:104F3000C401664A02EB81010861012062490855FB
:104F40001CE06048025D04EBC400604B03EB800092
:104F5000C168204600F0C8F804EBC4005B4901EBCF
:104F60008000006904EBC401584A02EB8101C96862
:104F7000401A04EBC40102EB81010861601CC4B259
:104F8000062C81DB4FF400615148FEF74DFE0A25E7
:104F900000BF281EA5F10101CDB2FAD14FF4006186
:104FA0004B48FEF73FFE4FF400614948FEF73CFED8
:104FB0000A2500BF281EA5F10101CDB2FAD14FF498
:104FC00000614348FEF72EFE002476E004EBC400A7
:104FD0003E4901EB8000006900286DD000200CE004
:104FE0003C4901EB041101EB800191ED000A3A49C3
:104FF00001EB800181ED000A401C0428F0DB04EB8A
:10500000C400324901EB800090ED020A04EBC400B9
:1050100001EB800080ED010A04EBC40001EB80008D
:1050200090ED020ADFED2D0A30EE200A04EBC400F9
:1050300001EB800080ED020A29480078D8B1E1B286
:1050400004EBC400214A02EB800090ED021AF0EE5E
:10505000410A04EBC40002EB800090ED011AB0EEAF
:10506000410A1D4802F020FD04EBC401174A02EB7F
:105070008101C86020E01B4901EB8401D1ED001AD9
:10508000B0EE611AE0B204EBC401104A02EB8101F8
:10509000D1ED021AF0EE610A04EBC40102EB8101CA
:1050A000D1ED011AB0EE610A02F02AFD04EBC40151
:1050B000064A02EB8101C860641C062C86DBBDE851
:1050C000F08100002800002034000020240500208A
:1050D000000C024054060020440600206F12833A60
:1050E0003B000020B4060020F0B503460C461546F0
:1050F0000027322C00D93224EF0127444FF0C04161
:1051000001EB43003946FEF717FD0027642600BF78
:10511000301EA6F10106FBD1F0BD00000CB5002049
:10512000019000903448006840F4803032490860B3
:1051300000BF3148006800F4003000900198401C26
:105140000190009818B90198B0F5A04FF1D12A4804
:10515000006800F4003010B10120009001E0002050
:1051600000900098012846D123484030006840F064
:1051700080502149403108602048006840F4404098
:105180001E4908601C48083000681B490831086047
:105190000846006840F4004008600846006840F493
:1051A000A05008601648091F0860081F006840F0FA
:1051B0008070091F086000BF0F48006800F0007091
:1051C0000028F9D040F205700E4908600A480830FE
:1051D000006820F0030008490831086008460068AC
:1051E00040F00200086000BF03480830006800F08B
:1051F0000C000828F8D10CBD0038024000700040B7
:1052000008544007003C024010B51548006840F4BF
:105210007000134908601348006840F0010011490C
:10522000086000200F49083108600E4800680E49E8
:1052300008400C4908600D48091D0860081F0068F7
:1052400020F48020091F0860002006490C31086006
:10525000FFF764FF4FF0006001498039086010BD1E
:1052600088ED00E000380240FFFFF6FE1030002419
:1052700010B50121880700F060F820B312480068DB
:10528000401C114908600846006842F210718842CB
:1052900002D100200C490860FEF744FA0B48008850
:1052A000401C0A49088008460088642807D100F09D
:1052B000C3FA0748FEF7AAF9002004490880012133
:1052C000880700F02BF810BDA8000020A4000020E3
:1052D000DC00002010B501210D4800F02EF890B13F
:1052E0000C480068401C0B4908600846006842F200
:1052F0001071884202D100200649086006480078F3
:1053000008B1FFF7BDFD0121014800F007F810BD0D
:1053100000040040240000203A000020CA4302821A
:10532000704721B1028842F00102028004E0028845
:105330004FF6FE731A400280704730B502460020D7
:1053400000230024158A05EA0103958905EA010472
:1053500013B10CB1012000E0002030BD1AB18389E7
:105360000B43838102E083898B4383817047000074
:1053700000220288184B98420ED0184B98420BD04E
:10538000B0F1804F08D0164B984205D0154B98428B
:1053900002D0154B984204D14FF68F731A404B88B8
:1053A0001A43124B984207D0114B984204D04FF643
:1053B000FF431A400B891A4302804B68C3620B8873
:1053C0000385054B984202D0044B984201D18B7A59
:1053D00003860123838270470000014000040140DE
:1053E0000004004000080040000C00400010004095
:1053F0000014004010B539A000F008FB3DA000F0FB
:1054000025FB01218807FFF789FF01218807FFF7A6
:1054100088FF002043E03A4901EB800191ED000A4A
:10542000384901EB8001D1ED000AB0EE001A70EEB0
:10543000C10AB4EEE00AF1EE10FA0EDB314901EBDD
:10544000800191ED000AF0EE000A30EE600A2C496E
:1054500001EB800181ED000A20E0294901EB800188
:1054600091ED000A284901EB8001D1ED000AB0EE70
:10547000001A70EE810AB4EEE00AF1EE10FA0DD8CF
:10548000214901EB800191ED000AF0EE000A30EEB7
:10549000200A1B4901EB800181ED000A401C06280F
:1054A000B9DB1A491648FDF7A3FA00221849194832
:1054B000FFF77AF800200CE000EBC001164A02EB7F
:1054C000810191ED070A114901EB800181ED000A8C
:1054D000401C0628F0DBFEF7E3FE10BD6C4920619E
:1054E0006D20696E2054657374696E67204D6F641A
:1054F000652D0000735F6C494149544D2D0000003B
:1055000014060020C4000020AC000020FC05002090
:105510002E0000202C0600202405002000B597B0A6
:1055200001210220FFF7C0F901218804FFF7DCF90F
:1055300001214805FFF7B8F907220A215648FEF76E
:1055400045FB07220B215448FEF740FB4FF48060D7
:10555000159002208DF8580000208DF85A00012087
:105560008DF85B0002208DF8590015A94A48FEF716
:10557000E5FA4FF40060159002208DF8580015A947
:105580004548FEF7DBFA4FF4E13011900020ADF80A
:105590004800ADF84A00ADF84C00ADF850000C20C2
:1055A000ADF84E0011A93D4800F0C6F901213B4875
:1055B00000F0ACF901228021384800F0B3F9012253
:1055C0004021364800F0AEF94FF0006002903348B9
:1055D000001D03903248049000200590342006906E
:1055E000002007904FF480600890002009900A90F6
:1055F0000B904FF400300C9000200D9001200E9085
:1056000000200F90109002A92648FDF783FB01218E
:105610002448FDF757FB0C208DF8040001208DF87D
:10562000050000208DF8060001208DF8070001A874
:10563000FEF774FF012210211A48FDF74EFB4FF0D0
:10564000006002901548001D039017480490402008
:1056500005904FF4FA700690002007904FF4806098
:105660000890002009900A900B904FF400300C90A5
:1056700000200D9001200E9000200F90109002A9A4
:1056800008483030FDF746FB012106483030FDF771
:1056900019FB17B000BD00000004024000480040A4
:1056A000C008002028600240CC06002000B597B05A
:1056B00001210420FFF7F8F801212020FFF734F939
:1056C00001218805FFF7F0F8082206215548FEF76A
:1056D0007DFA082207215348FEF778FA40201590FA
:1056E00002208DF8580000208DF85A0001208DF816
:1056F0005B0002208DF8590015A94A48FEF71EFAF2
:105700008020159002208DF8580015A94548FEF715
:1057100015FA4FF4E13011900020ADF84800ADF8D3
:105720004A00ADF84C00ADF850000C20ADF84E002A
:1057300011A93D4800F000F901213B4800F0E6F8CE
:1057400001228021384800F0EDF80122402136483E
:1057500000F0E8F84FF0206002903348001D0390FD
:1057600032480490002005903420069000200790D5
:105770004FF480600890002009900A900B904FF43D
:1057800000300C9000200D9001200E9000200F9012
:10579000109002A92648FDF7BDFA01212448FDF723
:1057A00091FA3A208DF8040001208DF805000020C0
:1057B0008DF8060001208DF8070001A8FEF7AEFE67
:1057C000012210211A48FDF788FA4FF0206002905C
:1057D0001548001D039017480490402005904FF491
:1057E000FA700690002007904FF480600890002027
:1057F00009900A900B904FF400300C9000200D900F
:1058000001200E9000200F90109002A908486030EF
:10581000FDF780FA012106486030FDF753FA17B012
:1058200000BD00000008024000140140E80A00200A
:1058300040640240F408002010B52DED028B0020DA
:105840002A4908706521294802780078401C274BB6
:10585000187027488154002430E004EBC400254927
:1058600001EB800090ED070AB5EEC00AF1EE10FAE8
:1058700007D29FED210A04EBC40001EB800080ED0C
:10588000070A04EBC4001B4A02EB800090ED070AF4
:1058900010EE101A084602F077FF41EC180B14497D
:1058A000124A1278881853EC182B14A1FAF742FD0B
:1058B0000E480078C01D0D490870641C062CCCDB16
:1058C0002D210B48094A1278815400F09FF80DA150
:1058D0000D48FAF7F1FD06490B48FAF730FE0A4881
:1058E00000F0B4F8BDEC028B10BD0000A000002059
:1058F0001C0B0020240500200000000025372E335B
:1059000066000000735F00003C00002021B1828926
:1059100042F40052828104E082894DF6FF731A40FE
:10592000828170471AB1838A0B43838202E0838AA3
:105930008B438382704700002DE9FF4705460E46E2
:105940000024A14600BFA046B08900B100BF2C8A48
:1059500024F44054F08804432C82AC8941F20C605A
:105960008443B08831890843718908430443AC817A
:10597000AC8A24F44074B0890443AC826846FEF7D4
:10598000E3FF2048854202D01F48854202D1DDF85E
:105990000C9001E0DDF80890A88900F4004040B1C7
:1059A00009EBC90000EB091031684900B0FBF1F7C1
:1059B00007E009EBC90000EB091031688900B0FB72
:1059C000F1F76420B7FBF0F004012009642101FB2A
:1059D0001078A88900F4004040B1322000EBC800E4
:1059E000B0FBF1F000F00700044308E0322000EBC8
:1059F00008106421B0FBF1F000F00F0004432C818B
:105A0000BDE8FF87001001400014014010B50446B6
:105A10000B48844212D000BF0A4800780028FBD10E
:105A200001200849087021460548FAF745FD044958
:105A30000548FAF784FD00200249087010BD0000F7
:105A4000800B002002000020DC00002010B504467E
:105A50000B48844212D000BF0A4800780028FBD1CE
:105A600001200849087021460548FAF725FD044938
:105A70000548FAF764FD00200249087010BD0000D7
:105A8000E40B002003000020D002002010B50F48D6
:105A9000007870B10EA0FFF7B9FF13A0FFF7D6FF93
:105AA00001200A4908700020114908701149087046
:105AB0000AE000200549087001200D490870FBF735
:105AC00047FE01200B49087010BD000009000020AE
:105AD0006C416E64726F69642069732072756E6EBA
